{
	"sol-practices/cast.sol": {
		"Cast": {
			"abi": [
				{
					"inputs": [],
					"name": "aw",
					"outputs": [
						{
							"internalType": "uint8",
							"name": "count",
							"type": "uint8"
						},
						{
							"internalType": "string",
							"name": "name",
							"type": "string"
						}
					],
					"stateMutability": "view",
					"type": "function"
				},
				{
					"inputs": [
						{
							"internalType": "uint256",
							"name": "b",
							"type": "uint256"
						}
					],
					"name": "checkAdd",
					"outputs": [
						{
							"internalType": "uint256",
							"name": "",
							"type": "uint256"
						}
					],
					"stateMutability": "view",
					"type": "function"
				},
				{
					"inputs": [
						{
							"internalType": "uint256",
							"name": "id",
							"type": "uint256"
						}
					],
					"name": "see",
					"outputs": [
						{
							"components": [
								{
									"internalType": "uint8",
									"name": "count",
									"type": "uint8"
								},
								{
									"internalType": "string",
									"name": "name",
									"type": "string"
								}
							],
							"internalType": "struct Workers",
							"name": "",
							"type": "tuple"
						}
					],
					"stateMutability": "view",
					"type": "function"
				},
				{
					"inputs": [
						{
							"internalType": "uint8",
							"name": "_c",
							"type": "uint8"
						},
						{
							"internalType": "string",
							"name": "_n",
							"type": "string"
						},
						{
							"internalType": "uint256",
							"name": "id",
							"type": "uint256"
						}
					],
					"name": "setStruct",
					"outputs": [],
					"stateMutability": "nonpayable",
					"type": "function"
				}
			],
			"devdoc": {
				"kind": "dev",
				"methods": {},
				"version": 1
			},
			"evm": {
				"assembly": "    /* \"sol-practices/cast.sol\":86:593  contract Cast{... */\n  mstore(0x40, 0x80)\n  callvalue\n  dup1\n  iszero\n  tag_1\n  jumpi\n  0x00\n  dup1\n  revert\ntag_1:\n  pop\n  dataSize(sub_0)\n  dup1\n  dataOffset(sub_0)\n  0x00\n  codecopy\n  0x00\n  return\nstop\n\nsub_0: assembly {\n        /* \"sol-practices/cast.sol\":86:593  contract Cast{... */\n      mstore(0x40, 0x80)\n      callvalue\n      dup1\n      iszero\n      tag_1\n      jumpi\n      0x00\n      dup1\n      revert\n    tag_1:\n      pop\n      jumpi(tag_2, lt(calldatasize, 0x04))\n      shr(0xe0, calldataload(0x00))\n      dup1\n      0x284053a1\n      eq\n      tag_3\n      jumpi\n      dup1\n      0x757efb7a\n      eq\n      tag_4\n      jumpi\n      dup1\n      0x9f3abb85\n      eq\n      tag_5\n      jumpi\n      dup1\n      0xea7a7aba\n      eq\n      tag_6\n      jumpi\n    tag_2:\n      0x00\n      dup1\n      revert\n        /* \"sol-practices/cast.sol\":376:509  function setStruct(uint8 _c,string memory _n,uint256 id) public {... */\n    tag_3:\n      tag_7\n      0x04\n      dup1\n      calldatasize\n      sub\n      dup2\n      add\n      swap1\n      tag_8\n      swap2\n      swap1\n      tag_9\n      jump\t// in\n    tag_8:\n      tag_10\n      jump\t// in\n    tag_7:\n      stop\n        /* \"sol-practices/cast.sol\":104:121  Workers public aw */\n    tag_4:\n      tag_11\n      tag_12\n      jump\t// in\n    tag_11:\n      mload(0x40)\n      tag_13\n      swap3\n      swap2\n      swap1\n      tag_14\n      jump\t// in\n    tag_13:\n      mload(0x40)\n      dup1\n      swap2\n      sub\n      swap1\n      return\n        /* \"sol-practices/cast.sol\":290:374  function checkAdd(uint256 b) public view returns(uint256){... */\n    tag_5:\n      tag_15\n      0x04\n      dup1\n      calldatasize\n      sub\n      dup2\n      add\n      swap1\n      tag_16\n      swap2\n      swap1\n      tag_17\n      jump\t// in\n    tag_16:\n      tag_18\n      jump\t// in\n    tag_15:\n      mload(0x40)\n      tag_19\n      swap2\n      swap1\n      tag_20\n      jump\t// in\n    tag_19:\n      mload(0x40)\n      dup1\n      swap2\n      sub\n      swap1\n      return\n        /* \"sol-practices/cast.sol\":511:591  function see(uint id) public view returns(Workers memory){... */\n    tag_6:\n      tag_21\n      0x04\n      dup1\n      calldatasize\n      sub\n      dup2\n      add\n      swap1\n      tag_22\n      swap2\n      swap1\n      tag_17\n      jump\t// in\n    tag_22:\n      tag_23\n      jump\t// in\n    tag_21:\n      mload(0x40)\n      tag_24\n      swap2\n      swap1\n      tag_25\n      jump\t// in\n    tag_24:\n      mload(0x40)\n      dup1\n      swap2\n      sub\n      swap1\n      return\n        /* \"sol-practices/cast.sol\":376:509  function setStruct(uint8 _c,string memory _n,uint256 id) public {... */\n    tag_10:\n        /* \"sol-practices/cast.sol\":469:505  aw.constructStruct(_c,_n,12,workers) */\n      tag_27\n        /* \"sol-practices/cast.sol\":488:490  _c */\n      dup4\n        /* \"sol-practices/cast.sol\":491:493  _n */\n      dup4\n        /* \"sol-practices/cast.sol\":494:496  12 */\n      0x0c\n        /* \"sol-practices/cast.sol\":497:504  workers */\n      0x03\n        /* \"sol-practices/cast.sol\":469:471  aw */\n      0x00\n        /* \"sol-practices/cast.sol\":469:487  aw.constructStruct */\n      tag_28\n      swap1\n        /* \"sol-practices/cast.sol\":469:505  aw.constructStruct(_c,_n,12,workers) */\n      swap5\n      swap4\n      swap3\n      swap2\n      swap1\n      0xffffffff\n      and\n      jump\t// in\n    tag_27:\n        /* \"sol-practices/cast.sol\":376:509  function setStruct(uint8 _c,string memory _n,uint256 id) public {... */\n      pop\n      pop\n      pop\n      jump\t// out\n        /* \"sol-practices/cast.sol\":104:121  Workers public aw */\n    tag_12:\n      0x00\n      dup1\n      0x00\n      add\n      0x00\n      swap1\n      sload\n      swap1\n      0x0100\n      exp\n      swap1\n      div\n      0xff\n      and\n      swap1\n      dup1\n      0x01\n      add\n      dup1\n      sload\n      tag_29\n      swap1\n      tag_30\n      jump\t// in\n    tag_29:\n      dup1\n      0x1f\n      add\n      0x20\n      dup1\n      swap2\n      div\n      mul\n      0x20\n      add\n      mload(0x40)\n      swap1\n      dup2\n      add\n      0x40\n      mstore\n      dup1\n      swap3\n      swap2\n      swap1\n      dup2\n      dup2\n      mstore\n      0x20\n      add\n      dup3\n      dup1\n      sload\n      tag_31\n      swap1\n      tag_30\n      jump\t// in\n    tag_31:\n      dup1\n      iszero\n      tag_32\n      jumpi\n      dup1\n      0x1f\n      lt\n      tag_33\n      jumpi\n      0x0100\n      dup1\n      dup4\n      sload\n      div\n      mul\n      dup4\n      mstore\n      swap2\n      0x20\n      add\n      swap2\n      jump(tag_32)\n    tag_33:\n      dup3\n      add\n      swap2\n      swap1\n      0x00\n      mstore\n      keccak256(0x00, 0x20)\n      swap1\n    tag_34:\n      dup2\n      sload\n      dup2\n      mstore\n      swap1\n      0x01\n      add\n      swap1\n      0x20\n      add\n      dup1\n      dup4\n      gt\n      tag_34\n      jumpi\n      dup3\n      swap1\n      sub\n      0x1f\n      and\n      dup3\n      add\n      swap2\n    tag_32:\n      pop\n      pop\n      pop\n      pop\n      pop\n      swap1\n      pop\n      dup3\n      jump\t// out\n        /* \"sol-practices/cast.sol\":290:374  function checkAdd(uint256 b) public view returns(uint256){... */\n    tag_18:\n        /* \"sol-practices/cast.sol\":339:346  uint256 */\n      0x00\n        /* \"sol-practices/cast.sol\":361:371  tem.add(b) */\n      tag_36\n        /* \"sol-practices/cast.sol\":369:370  b */\n      dup3\n        /* \"sol-practices/cast.sol\":361:364  tem */\n      sload(0x02)\n        /* \"sol-practices/cast.sol\":361:368  tem.add */\n      tag_37\n      swap1\n        /* \"sol-practices/cast.sol\":361:371  tem.add(b) */\n      swap2\n      swap1\n      0xffffffff\n      and\n      jump\t// in\n    tag_36:\n        /* \"sol-practices/cast.sol\":354:371  return tem.add(b) */\n      swap1\n      pop\n        /* \"sol-practices/cast.sol\":290:374  function checkAdd(uint256 b) public view returns(uint256){... */\n      swap2\n      swap1\n      pop\n      jump\t// out\n        /* \"sol-practices/cast.sol\":511:591  function see(uint id) public view returns(Workers memory){... */\n    tag_23:\n        /* \"sol-practices/cast.sol\":553:567  Workers memory */\n      tag_38\n      tag_39\n      jump\t// in\n    tag_38:\n        /* \"sol-practices/cast.sol\":577:584  workers */\n      0x03\n        /* \"sol-practices/cast.sol\":577:588  workers[id] */\n      0x00\n        /* \"sol-practices/cast.sol\":585:587  id */\n      dup4\n        /* \"sol-practices/cast.sol\":577:588  workers[id] */\n      dup2\n      mstore\n      0x20\n      add\n      swap1\n      dup2\n      mstore\n      0x20\n      add\n      0x00\n      keccak256\n        /* \"sol-practices/cast.sol\":570:588  return workers[id] */\n      mload(0x40)\n      dup1\n      0x40\n      add\n      0x40\n      mstore\n      swap1\n      dup2\n      0x00\n      dup3\n      add\n      0x00\n      swap1\n      sload\n      swap1\n      0x0100\n      exp\n      swap1\n      div\n      0xff\n      and\n      0xff\n      and\n      0xff\n      and\n      dup2\n      mstore\n      0x20\n      add\n      0x01\n      dup3\n      add\n      dup1\n      sload\n      tag_41\n      swap1\n      tag_30\n      jump\t// in\n    tag_41:\n      dup1\n      0x1f\n      add\n      0x20\n      dup1\n      swap2\n      div\n      mul\n      0x20\n      add\n      mload(0x40)\n      swap1\n      dup2\n      add\n      0x40\n      mstore\n      dup1\n      swap3\n      swap2\n      swap1\n      dup2\n      dup2\n      mstore\n      0x20\n      add\n      dup3\n      dup1\n      sload\n      tag_42\n      swap1\n      tag_30\n      jump\t// in\n    tag_42:\n      dup1\n      iszero\n      tag_43\n      jumpi\n      dup1\n      0x1f\n      lt\n      tag_44\n      jumpi\n      0x0100\n      dup1\n      dup4\n      sload\n      div\n      mul\n      dup4\n      mstore\n      swap2\n      0x20\n      add\n      swap2\n      jump(tag_43)\n    tag_44:\n      dup3\n      add\n      swap2\n      swap1\n      0x00\n      mstore\n      keccak256(0x00, 0x20)\n      swap1\n    tag_45:\n      dup2\n      sload\n      dup2\n      mstore\n      swap1\n      0x01\n      add\n      swap1\n      0x20\n      add\n      dup1\n      dup4\n      gt\n      tag_45\n      jumpi\n      dup3\n      swap1\n      sub\n      0x1f\n      and\n      dup3\n      add\n      swap2\n    tag_43:\n      pop\n      pop\n      pop\n      pop\n      pop\n      dup2\n      mstore\n      pop\n      pop\n      swap1\n      pop\n        /* \"sol-practices/cast.sol\":511:591  function see(uint id) public view returns(Workers memory){... */\n      swap2\n      swap1\n      pop\n      jump\t// out\n        /* \"sol-practices/LibCast.sol\":183:355  function constructStruct(Workers storage w, uint8 _c,string memory _n,uint256 id,mapping(uint=>Workers) storage workers) internal {... */\n    tag_28:\n        /* \"sol-practices/LibCast.sol\":317:324  workers */\n      dup1\n        /* \"sol-practices/LibCast.sol\":317:328  workers[id] */\n      0x00\n        /* \"sol-practices/LibCast.sol\":325:327  id */\n      dup4\n        /* \"sol-practices/LibCast.sol\":317:328  workers[id] */\n      dup2\n      mstore\n      0x20\n      add\n      swap1\n      dup2\n      mstore\n      0x20\n      add\n      0x00\n      keccak256\n        /* \"sol-practices/LibCast.sol\":315:328  w=workers[id] */\n      swap5\n      pop\n        /* \"sol-practices/LibCast.sol\":338:340  _c */\n      dup4\n        /* \"sol-practices/LibCast.sol\":330:331  w */\n      dup6\n        /* \"sol-practices/LibCast.sol\":330:337  w.count */\n      0x00\n      add\n      0x00\n        /* \"sol-practices/LibCast.sol\":330:340  w.count=_c */\n      0x0100\n      exp\n      dup2\n      sload\n      dup2\n      0xff\n      mul\n      not\n      and\n      swap1\n      dup4\n      0xff\n      and\n      mul\n      or\n      swap1\n      sstore\n      pop\n        /* \"sol-practices/LibCast.sol\":349:351  _n */\n      dup3\n        /* \"sol-practices/LibCast.sol\":342:343  w */\n      dup6\n        /* \"sol-practices/LibCast.sol\":342:348  w.name */\n      0x01\n      add\n        /* \"sol-practices/LibCast.sol\":342:351  w.name=_n */\n      swap1\n      dup1\n      mload\n      swap1\n      0x20\n      add\n      swap1\n      tag_47\n      swap3\n      swap2\n      swap1\n      tag_48\n      jump\t// in\n    tag_47:\n      pop\n        /* \"sol-practices/LibCast.sol\":183:355  function constructStruct(Workers storage w, uint8 _c,string memory _n,uint256 id,mapping(uint=>Workers) storage workers) internal {... */\n      pop\n      pop\n      pop\n      pop\n      pop\n      jump\t// out\n        /* \"sol-practices/LibCast.sol\":106:180  function add(uint a,uint b) internal pure returns(uint){... */\n    tag_37:\n        /* \"sol-practices/LibCast.sol\":156:160  uint */\n      0x00\n        /* \"sol-practices/LibCast.sol\":176:177  b */\n      dup2\n        /* \"sol-practices/LibCast.sol\":174:175  a */\n      dup4\n        /* \"sol-practices/LibCast.sol\":174:177  a+b */\n      tag_50\n      swap2\n      swap1\n      tag_51\n      jump\t// in\n    tag_50:\n        /* \"sol-practices/LibCast.sol\":167:177  return a+b */\n      swap1\n      pop\n        /* \"sol-practices/LibCast.sol\":106:180  function add(uint a,uint b) internal pure returns(uint){... */\n      swap3\n      swap2\n      pop\n      pop\n      jump\t// out\n    tag_39:\n      mload(0x40)\n      dup1\n      0x40\n      add\n      0x40\n      mstore\n      dup1\n      and(0xff, 0x00)\n      dup2\n      mstore\n      0x20\n      add\n      0x60\n      dup2\n      mstore\n      pop\n      swap1\n      jump\t// out\n    tag_48:\n      dup3\n      dup1\n      sload\n      tag_52\n      swap1\n      tag_30\n      jump\t// in\n    tag_52:\n      swap1\n      0x00\n      mstore\n      keccak256(0x00, 0x20)\n      swap1\n      0x1f\n      add\n      0x20\n      swap1\n      div\n      dup2\n      add\n      swap3\n      dup3\n      tag_54\n      jumpi\n      0x00\n      dup6\n      sstore\n      jump(tag_53)\n    tag_54:\n      dup3\n      0x1f\n      lt\n      tag_55\n      jumpi\n      dup1\n      mload\n      not(0xff)\n      and\n      dup4\n      dup1\n      add\n      or\n      dup6\n      sstore\n      jump(tag_53)\n    tag_55:\n      dup3\n      dup1\n      add\n      0x01\n      add\n      dup6\n      sstore\n      dup3\n      iszero\n      tag_53\n      jumpi\n      swap2\n      dup3\n      add\n    tag_56:\n      dup3\n      dup2\n      gt\n      iszero\n      tag_57\n      jumpi\n      dup3\n      mload\n      dup3\n      sstore\n      swap2\n      0x20\n      add\n      swap2\n      swap1\n      0x01\n      add\n      swap1\n      jump(tag_56)\n    tag_57:\n    tag_53:\n      pop\n      swap1\n      pop\n      tag_58\n      swap2\n      swap1\n      tag_59\n      jump\t// in\n    tag_58:\n      pop\n      swap1\n      jump\t// out\n    tag_59:\n    tag_60:\n      dup1\n      dup3\n      gt\n      iszero\n      tag_61\n      jumpi\n      0x00\n      dup2\n      0x00\n      swap1\n      sstore\n      pop\n      0x01\n      add\n      jump(tag_60)\n    tag_61:\n      pop\n      swap1\n      jump\t// out\n        /* \"#utility.yul\":7:82   */\n    tag_62:\n        /* \"#utility.yul\":40:46   */\n      0x00\n        /* \"#utility.yul\":73:75   */\n      0x40\n        /* \"#utility.yul\":67:76   */\n      mload\n        /* \"#utility.yul\":57:76   */\n      swap1\n      pop\n        /* \"#utility.yul\":7:82   */\n      swap1\n      jump\t// out\n        /* \"#utility.yul\":88:205   */\n    tag_63:\n        /* \"#utility.yul\":197:198   */\n      0x00\n        /* \"#utility.yul\":194:195   */\n      dup1\n        /* \"#utility.yul\":187:199   */\n      revert\n        /* \"#utility.yul\":211:328   */\n    tag_64:\n        /* \"#utility.yul\":320:321   */\n      0x00\n        /* \"#utility.yul\":317:318   */\n      dup1\n        /* \"#utility.yul\":310:322   */\n      revert\n        /* \"#utility.yul\":334:420   */\n    tag_65:\n        /* \"#utility.yul\":369:376   */\n      0x00\n        /* \"#utility.yul\":409:413   */\n      0xff\n        /* \"#utility.yul\":402:407   */\n      dup3\n        /* \"#utility.yul\":398:414   */\n      and\n        /* \"#utility.yul\":387:414   */\n      swap1\n      pop\n        /* \"#utility.yul\":334:420   */\n      swap2\n      swap1\n      pop\n      jump\t// out\n        /* \"#utility.yul\":426:544   */\n    tag_66:\n        /* \"#utility.yul\":497:519   */\n      tag_99\n        /* \"#utility.yul\":513:518   */\n      dup2\n        /* \"#utility.yul\":497:519   */\n      tag_65\n      jump\t// in\n    tag_99:\n        /* \"#utility.yul\":490:495   */\n      dup2\n        /* \"#utility.yul\":487:520   */\n      eq\n        /* \"#utility.yul\":477:538   */\n      tag_100\n      jumpi\n        /* \"#utility.yul\":534:535   */\n      0x00\n        /* \"#utility.yul\":531:532   */\n      dup1\n        /* \"#utility.yul\":524:536   */\n      revert\n        /* \"#utility.yul\":477:538   */\n    tag_100:\n        /* \"#utility.yul\":426:544   */\n      pop\n      jump\t// out\n        /* \"#utility.yul\":550:685   */\n    tag_67:\n        /* \"#utility.yul\":594:599   */\n      0x00\n        /* \"#utility.yul\":632:638   */\n      dup2\n        /* \"#utility.yul\":619:639   */\n      calldataload\n        /* \"#utility.yul\":610:639   */\n      swap1\n      pop\n        /* \"#utility.yul\":648:679   */\n      tag_102\n        /* \"#utility.yul\":673:678   */\n      dup2\n        /* \"#utility.yul\":648:679   */\n      tag_66\n      jump\t// in\n    tag_102:\n        /* \"#utility.yul\":550:685   */\n      swap3\n      swap2\n      pop\n      pop\n      jump\t// out\n        /* \"#utility.yul\":691:808   */\n    tag_68:\n        /* \"#utility.yul\":800:801   */\n      0x00\n        /* \"#utility.yul\":797:798   */\n      dup1\n        /* \"#utility.yul\":790:802   */\n      revert\n        /* \"#utility.yul\":814:931   */\n    tag_69:\n        /* \"#utility.yul\":923:924   */\n      0x00\n        /* \"#utility.yul\":920:921   */\n      dup1\n        /* \"#utility.yul\":913:925   */\n      revert\n        /* \"#utility.yul\":937:1039   */\n    tag_70:\n        /* \"#utility.yul\":978:984   */\n      0x00\n        /* \"#utility.yul\":1029:1031   */\n      0x1f\n        /* \"#utility.yul\":1025:1032   */\n      not\n        /* \"#utility.yul\":1020:1022   */\n      0x1f\n        /* \"#utility.yul\":1013:1018   */\n      dup4\n        /* \"#utility.yul\":1009:1023   */\n      add\n        /* \"#utility.yul\":1005:1033   */\n      and\n        /* \"#utility.yul\":995:1033   */\n      swap1\n      pop\n        /* \"#utility.yul\":937:1039   */\n      swap2\n      swap1\n      pop\n      jump\t// out\n        /* \"#utility.yul\":1045:1225   */\n    tag_71:\n        /* \"#utility.yul\":1093:1170   */\n      0x4e487b7100000000000000000000000000000000000000000000000000000000\n        /* \"#utility.yul\":1090:1091   */\n      0x00\n        /* \"#utility.yul\":1083:1171   */\n      mstore\n        /* \"#utility.yul\":1190:1194   */\n      0x41\n        /* \"#utility.yul\":1187:1188   */\n      0x04\n        /* \"#utility.yul\":1180:1195   */\n      mstore\n        /* \"#utility.yul\":1214:1218   */\n      0x24\n        /* \"#utility.yul\":1211:1212   */\n      0x00\n        /* \"#utility.yul\":1204:1219   */\n      revert\n        /* \"#utility.yul\":1231:1512   */\n    tag_72:\n        /* \"#utility.yul\":1314:1341   */\n      tag_108\n        /* \"#utility.yul\":1336:1340   */\n      dup3\n        /* \"#utility.yul\":1314:1341   */\n      tag_70\n      jump\t// in\n    tag_108:\n        /* \"#utility.yul\":1306:1312   */\n      dup2\n        /* \"#utility.yul\":1302:1342   */\n      add\n        /* \"#utility.yul\":1444:1450   */\n      dup2\n        /* \"#utility.yul\":1432:1442   */\n      dup2\n        /* \"#utility.yul\":1429:1451   */\n      lt\n        /* \"#utility.yul\":1408:1426   */\n      0xffffffffffffffff\n        /* \"#utility.yul\":1396:1406   */\n      dup3\n        /* \"#utility.yul\":1393:1427   */\n      gt\n        /* \"#utility.yul\":1390:1452   */\n      or\n        /* \"#utility.yul\":1387:1475   */\n      iszero\n      tag_109\n      jumpi\n        /* \"#utility.yul\":1455:1473   */\n      tag_110\n      tag_71\n      jump\t// in\n    tag_110:\n        /* \"#utility.yul\":1387:1475   */\n    tag_109:\n        /* \"#utility.yul\":1495:1505   */\n      dup1\n        /* \"#utility.yul\":1491:1493   */\n      0x40\n        /* \"#utility.yul\":1484:1506   */\n      mstore\n        /* \"#utility.yul\":1274:1512   */\n      pop\n        /* \"#utility.yul\":1231:1512   */\n      pop\n      pop\n      jump\t// out\n        /* \"#utility.yul\":1518:1647   */\n    tag_73:\n        /* \"#utility.yul\":1552:1558   */\n      0x00\n        /* \"#utility.yul\":1579:1599   */\n      tag_112\n      tag_62\n      jump\t// in\n    tag_112:\n        /* \"#utility.yul\":1569:1599   */\n      swap1\n      pop\n        /* \"#utility.yul\":1608:1641   */\n      tag_113\n        /* \"#utility.yul\":1636:1640   */\n      dup3\n        /* \"#utility.yul\":1628:1634   */\n      dup3\n        /* \"#utility.yul\":1608:1641   */\n      tag_72\n      jump\t// in\n    tag_113:\n        /* \"#utility.yul\":1518:1647   */\n      swap2\n      swap1\n      pop\n      jump\t// out\n        /* \"#utility.yul\":1653:1961   */\n    tag_74:\n        /* \"#utility.yul\":1715:1719   */\n      0x00\n        /* \"#utility.yul\":1805:1823   */\n      0xffffffffffffffff\n        /* \"#utility.yul\":1797:1803   */\n      dup3\n        /* \"#utility.yul\":1794:1824   */\n      gt\n        /* \"#utility.yul\":1791:1847   */\n      iszero\n      tag_115\n      jumpi\n        /* \"#utility.yul\":1827:1845   */\n      tag_116\n      tag_71\n      jump\t// in\n    tag_116:\n        /* \"#utility.yul\":1791:1847   */\n    tag_115:\n        /* \"#utility.yul\":1865:1894   */\n      tag_117\n        /* \"#utility.yul\":1887:1893   */\n      dup3\n        /* \"#utility.yul\":1865:1894   */\n      tag_70\n      jump\t// in\n    tag_117:\n        /* \"#utility.yul\":1857:1894   */\n      swap1\n      pop\n        /* \"#utility.yul\":1949:1953   */\n      0x20\n        /* \"#utility.yul\":1943:1947   */\n      dup2\n        /* \"#utility.yul\":1939:1954   */\n      add\n        /* \"#utility.yul\":1931:1954   */\n      swap1\n      pop\n        /* \"#utility.yul\":1653:1961   */\n      swap2\n      swap1\n      pop\n      jump\t// out\n        /* \"#utility.yul\":1967:2121   */\n    tag_75:\n        /* \"#utility.yul\":2051:2057   */\n      dup3\n        /* \"#utility.yul\":2046:2049   */\n      dup2\n        /* \"#utility.yul\":2041:2044   */\n      dup4\n        /* \"#utility.yul\":2028:2058   */\n      calldatacopy\n        /* \"#utility.yul\":2113:2114   */\n      0x00\n        /* \"#utility.yul\":2104:2110   */\n      dup4\n        /* \"#utility.yul\":2099:2102   */\n      dup4\n        /* \"#utility.yul\":2095:2111   */\n      add\n        /* \"#utility.yul\":2088:2115   */\n      mstore\n        /* \"#utility.yul\":1967:2121   */\n      pop\n      pop\n      pop\n      jump\t// out\n        /* \"#utility.yul\":2127:2539   */\n    tag_76:\n        /* \"#utility.yul\":2205:2210   */\n      0x00\n        /* \"#utility.yul\":2230:2296   */\n      tag_120\n        /* \"#utility.yul\":2246:2295   */\n      tag_121\n        /* \"#utility.yul\":2288:2294   */\n      dup5\n        /* \"#utility.yul\":2246:2295   */\n      tag_74\n      jump\t// in\n    tag_121:\n        /* \"#utility.yul\":2230:2296   */\n      tag_73\n      jump\t// in\n    tag_120:\n        /* \"#utility.yul\":2221:2296   */\n      swap1\n      pop\n        /* \"#utility.yul\":2319:2325   */\n      dup3\n        /* \"#utility.yul\":2312:2317   */\n      dup2\n        /* \"#utility.yul\":2305:2326   */\n      mstore\n        /* \"#utility.yul\":2357:2361   */\n      0x20\n        /* \"#utility.yul\":2350:2355   */\n      dup2\n        /* \"#utility.yul\":2346:2362   */\n      add\n        /* \"#utility.yul\":2395:2398   */\n      dup5\n        /* \"#utility.yul\":2386:2392   */\n      dup5\n        /* \"#utility.yul\":2381:2384   */\n      dup5\n        /* \"#utility.yul\":2377:2393   */\n      add\n        /* \"#utility.yul\":2374:2399   */\n      gt\n        /* \"#utility.yul\":2371:2483   */\n      iszero\n      tag_122\n      jumpi\n        /* \"#utility.yul\":2402:2481   */\n      tag_123\n      tag_69\n      jump\t// in\n    tag_123:\n        /* \"#utility.yul\":2371:2483   */\n    tag_122:\n        /* \"#utility.yul\":2492:2533   */\n      tag_124\n        /* \"#utility.yul\":2526:2532   */\n      dup5\n        /* \"#utility.yul\":2521:2524   */\n      dup3\n        /* \"#utility.yul\":2516:2519   */\n      dup6\n        /* \"#utility.yul\":2492:2533   */\n      tag_75\n      jump\t// in\n    tag_124:\n        /* \"#utility.yul\":2211:2539   */\n      pop\n        /* \"#utility.yul\":2127:2539   */\n      swap4\n      swap3\n      pop\n      pop\n      pop\n      jump\t// out\n        /* \"#utility.yul\":2559:2899   */\n    tag_77:\n        /* \"#utility.yul\":2615:2620   */\n      0x00\n        /* \"#utility.yul\":2664:2667   */\n      dup3\n        /* \"#utility.yul\":2657:2661   */\n      0x1f\n        /* \"#utility.yul\":2649:2655   */\n      dup4\n        /* \"#utility.yul\":2645:2662   */\n      add\n        /* \"#utility.yul\":2641:2668   */\n      slt\n        /* \"#utility.yul\":2631:2753   */\n      tag_126\n      jumpi\n        /* \"#utility.yul\":2672:2751   */\n      tag_127\n      tag_68\n      jump\t// in\n    tag_127:\n        /* \"#utility.yul\":2631:2753   */\n    tag_126:\n        /* \"#utility.yul\":2789:2795   */\n      dup2\n        /* \"#utility.yul\":2776:2796   */\n      calldataload\n        /* \"#utility.yul\":2814:2893   */\n      tag_128\n        /* \"#utility.yul\":2889:2892   */\n      dup5\n        /* \"#utility.yul\":2881:2887   */\n      dup3\n        /* \"#utility.yul\":2874:2878   */\n      0x20\n        /* \"#utility.yul\":2866:2872   */\n      dup7\n        /* \"#utility.yul\":2862:2879   */\n      add\n        /* \"#utility.yul\":2814:2893   */\n      tag_76\n      jump\t// in\n    tag_128:\n        /* \"#utility.yul\":2805:2893   */\n      swap2\n      pop\n        /* \"#utility.yul\":2621:2899   */\n      pop\n        /* \"#utility.yul\":2559:2899   */\n      swap3\n      swap2\n      pop\n      pop\n      jump\t// out\n        /* \"#utility.yul\":2905:2982   */\n    tag_78:\n        /* \"#utility.yul\":2942:2949   */\n      0x00\n        /* \"#utility.yul\":2971:2976   */\n      dup2\n        /* \"#utility.yul\":2960:2976   */\n      swap1\n      pop\n        /* \"#utility.yul\":2905:2982   */\n      swap2\n      swap1\n      pop\n      jump\t// out\n        /* \"#utility.yul\":2988:3110   */\n    tag_79:\n        /* \"#utility.yul\":3061:3085   */\n      tag_131\n        /* \"#utility.yul\":3079:3084   */\n      dup2\n        /* \"#utility.yul\":3061:3085   */\n      tag_78\n      jump\t// in\n    tag_131:\n        /* \"#utility.yul\":3054:3059   */\n      dup2\n        /* \"#utility.yul\":3051:3086   */\n      eq\n        /* \"#utility.yul\":3041:3104   */\n      tag_132\n      jumpi\n        /* \"#utility.yul\":3100:3101   */\n      0x00\n        /* \"#utility.yul\":3097:3098   */\n      dup1\n        /* \"#utility.yul\":3090:3102   */\n      revert\n        /* \"#utility.yul\":3041:3104   */\n    tag_132:\n        /* \"#utility.yul\":2988:3110   */\n      pop\n      jump\t// out\n        /* \"#utility.yul\":3116:3255   */\n    tag_80:\n        /* \"#utility.yul\":3162:3167   */\n      0x00\n        /* \"#utility.yul\":3200:3206   */\n      dup2\n        /* \"#utility.yul\":3187:3207   */\n      calldataload\n        /* \"#utility.yul\":3178:3207   */\n      swap1\n      pop\n        /* \"#utility.yul\":3216:3249   */\n      tag_134\n        /* \"#utility.yul\":3243:3248   */\n      dup2\n        /* \"#utility.yul\":3216:3249   */\n      tag_79\n      jump\t// in\n    tag_134:\n        /* \"#utility.yul\":3116:3255   */\n      swap3\n      swap2\n      pop\n      pop\n      jump\t// out\n        /* \"#utility.yul\":3261:4056   */\n    tag_9:\n        /* \"#utility.yul\":3346:3352   */\n      0x00\n        /* \"#utility.yul\":3354:3360   */\n      dup1\n        /* \"#utility.yul\":3362:3368   */\n      0x00\n        /* \"#utility.yul\":3411:3413   */\n      0x60\n        /* \"#utility.yul\":3399:3408   */\n      dup5\n        /* \"#utility.yul\":3390:3397   */\n      dup7\n        /* \"#utility.yul\":3386:3409   */\n      sub\n        /* \"#utility.yul\":3382:3414   */\n      slt\n        /* \"#utility.yul\":3379:3498   */\n      iszero\n      tag_136\n      jumpi\n        /* \"#utility.yul\":3417:3496   */\n      tag_137\n      tag_63\n      jump\t// in\n    tag_137:\n        /* \"#utility.yul\":3379:3498   */\n    tag_136:\n        /* \"#utility.yul\":3537:3538   */\n      0x00\n        /* \"#utility.yul\":3562:3613   */\n      tag_138\n        /* \"#utility.yul\":3605:3612   */\n      dup7\n        /* \"#utility.yul\":3596:3602   */\n      dup3\n        /* \"#utility.yul\":3585:3594   */\n      dup8\n        /* \"#utility.yul\":3581:3603   */\n      add\n        /* \"#utility.yul\":3562:3613   */\n      tag_67\n      jump\t// in\n    tag_138:\n        /* \"#utility.yul\":3552:3613   */\n      swap4\n      pop\n        /* \"#utility.yul\":3508:3623   */\n      pop\n        /* \"#utility.yul\":3690:3692   */\n      0x20\n        /* \"#utility.yul\":3679:3688   */\n      dup5\n        /* \"#utility.yul\":3675:3693   */\n      add\n        /* \"#utility.yul\":3662:3694   */\n      calldataload\n        /* \"#utility.yul\":3721:3739   */\n      0xffffffffffffffff\n        /* \"#utility.yul\":3713:3719   */\n      dup2\n        /* \"#utility.yul\":3710:3740   */\n      gt\n        /* \"#utility.yul\":3707:3824   */\n      iszero\n      tag_139\n      jumpi\n        /* \"#utility.yul\":3743:3822   */\n      tag_140\n      tag_64\n      jump\t// in\n    tag_140:\n        /* \"#utility.yul\":3707:3824   */\n    tag_139:\n        /* \"#utility.yul\":3848:3911   */\n      tag_141\n        /* \"#utility.yul\":3903:3910   */\n      dup7\n        /* \"#utility.yul\":3894:3900   */\n      dup3\n        /* \"#utility.yul\":3883:3892   */\n      dup8\n        /* \"#utility.yul\":3879:3901   */\n      add\n        /* \"#utility.yul\":3848:3911   */\n      tag_77\n      jump\t// in\n    tag_141:\n        /* \"#utility.yul\":3838:3911   */\n      swap3\n      pop\n        /* \"#utility.yul\":3633:3921   */\n      pop\n        /* \"#utility.yul\":3960:3962   */\n      0x40\n        /* \"#utility.yul\":3986:4039   */\n      tag_142\n        /* \"#utility.yul\":4031:4038   */\n      dup7\n        /* \"#utility.yul\":4022:4028   */\n      dup3\n        /* \"#utility.yul\":4011:4020   */\n      dup8\n        /* \"#utility.yul\":4007:4029   */\n      add\n        /* \"#utility.yul\":3986:4039   */\n      tag_80\n      jump\t// in\n    tag_142:\n        /* \"#utility.yul\":3976:4039   */\n      swap2\n      pop\n        /* \"#utility.yul\":3931:4049   */\n      pop\n        /* \"#utility.yul\":3261:4056   */\n      swap3\n      pop\n      swap3\n      pop\n      swap3\n      jump\t// out\n        /* \"#utility.yul\":4062:4174   */\n    tag_81:\n        /* \"#utility.yul\":4145:4167   */\n      tag_144\n        /* \"#utility.yul\":4161:4166   */\n      dup2\n        /* \"#utility.yul\":4145:4167   */\n      tag_65\n      jump\t// in\n    tag_144:\n        /* \"#utility.yul\":4140:4143   */\n      dup3\n        /* \"#utility.yul\":4133:4168   */\n      mstore\n        /* \"#utility.yul\":4062:4174   */\n      pop\n      pop\n      jump\t// out\n        /* \"#utility.yul\":4180:4279   */\n    tag_82:\n        /* \"#utility.yul\":4232:4238   */\n      0x00\n        /* \"#utility.yul\":4266:4271   */\n      dup2\n        /* \"#utility.yul\":4260:4272   */\n      mload\n        /* \"#utility.yul\":4250:4272   */\n      swap1\n      pop\n        /* \"#utility.yul\":4180:4279   */\n      swap2\n      swap1\n      pop\n      jump\t// out\n        /* \"#utility.yul\":4285:4454   */\n    tag_83:\n        /* \"#utility.yul\":4369:4380   */\n      0x00\n        /* \"#utility.yul\":4403:4409   */\n      dup3\n        /* \"#utility.yul\":4398:4401   */\n      dup3\n        /* \"#utility.yul\":4391:4410   */\n      mstore\n        /* \"#utility.yul\":4443:4447   */\n      0x20\n        /* \"#utility.yul\":4438:4441   */\n      dup3\n        /* \"#utility.yul\":4434:4448   */\n      add\n        /* \"#utility.yul\":4419:4448   */\n      swap1\n      pop\n        /* \"#utility.yul\":4285:4454   */\n      swap3\n      swap2\n      pop\n      pop\n      jump\t// out\n        /* \"#utility.yul\":4460:4767   */\n    tag_84:\n        /* \"#utility.yul\":4528:4529   */\n      0x00\n        /* \"#utility.yul\":4538:4651   */\n    tag_148:\n        /* \"#utility.yul\":4552:4558   */\n      dup4\n        /* \"#utility.yul\":4549:4550   */\n      dup2\n        /* \"#utility.yul\":4546:4559   */\n      lt\n        /* \"#utility.yul\":4538:4651   */\n      iszero\n      tag_150\n      jumpi\n        /* \"#utility.yul\":4637:4638   */\n      dup1\n        /* \"#utility.yul\":4632:4635   */\n      dup3\n        /* \"#utility.yul\":4628:4639   */\n      add\n        /* \"#utility.yul\":4622:4640   */\n      mload\n        /* \"#utility.yul\":4618:4619   */\n      dup2\n        /* \"#utility.yul\":4613:4616   */\n      dup5\n        /* \"#utility.yul\":4609:4620   */\n      add\n        /* \"#utility.yul\":4602:4641   */\n      mstore\n        /* \"#utility.yul\":4574:4576   */\n      0x20\n        /* \"#utility.yul\":4571:4572   */\n      dup2\n        /* \"#utility.yul\":4567:4577   */\n      add\n        /* \"#utility.yul\":4562:4577   */\n      swap1\n      pop\n        /* \"#utility.yul\":4538:4651   */\n      jump(tag_148)\n    tag_150:\n        /* \"#utility.yul\":4669:4675   */\n      dup4\n        /* \"#utility.yul\":4666:4667   */\n      dup2\n        /* \"#utility.yul\":4663:4676   */\n      gt\n        /* \"#utility.yul\":4660:4761   */\n      iszero\n      tag_151\n      jumpi\n        /* \"#utility.yul\":4749:4750   */\n      0x00\n        /* \"#utility.yul\":4740:4746   */\n      dup5\n        /* \"#utility.yul\":4735:4738   */\n      dup5\n        /* \"#utility.yul\":4731:4747   */\n      add\n        /* \"#utility.yul\":4724:4751   */\n      mstore\n        /* \"#utility.yul\":4660:4761   */\n    tag_151:\n        /* \"#utility.yul\":4509:4767   */\n      pop\n        /* \"#utility.yul\":4460:4767   */\n      pop\n      pop\n      pop\n      jump\t// out\n        /* \"#utility.yul\":4773:5137   */\n    tag_85:\n        /* \"#utility.yul\":4861:4864   */\n      0x00\n        /* \"#utility.yul\":4889:4928   */\n      tag_153\n        /* \"#utility.yul\":4922:4927   */\n      dup3\n        /* \"#utility.yul\":4889:4928   */\n      tag_82\n      jump\t// in\n    tag_153:\n        /* \"#utility.yul\":4944:5015   */\n      tag_154\n        /* \"#utility.yul\":5008:5014   */\n      dup2\n        /* \"#utility.yul\":5003:5006   */\n      dup6\n        /* \"#utility.yul\":4944:5015   */\n      tag_83\n      jump\t// in\n    tag_154:\n        /* \"#utility.yul\":4937:5015   */\n      swap4\n      pop\n        /* \"#utility.yul\":5024:5076   */\n      tag_155\n        /* \"#utility.yul\":5069:5075   */\n      dup2\n        /* \"#utility.yul\":5064:5067   */\n      dup6\n        /* \"#utility.yul\":5057:5061   */\n      0x20\n        /* \"#utility.yul\":5050:5055   */\n      dup7\n        /* \"#utility.yul\":5046:5062   */\n      add\n        /* \"#utility.yul\":5024:5076   */\n      tag_84\n      jump\t// in\n    tag_155:\n        /* \"#utility.yul\":5101:5130   */\n      tag_156\n        /* \"#utility.yul\":5123:5129   */\n      dup2\n        /* \"#utility.yul\":5101:5130   */\n      tag_70\n      jump\t// in\n    tag_156:\n        /* \"#utility.yul\":5096:5099   */\n      dup5\n        /* \"#utility.yul\":5092:5131   */\n      add\n        /* \"#utility.yul\":5085:5131   */\n      swap2\n      pop\n        /* \"#utility.yul\":4865:5137   */\n      pop\n        /* \"#utility.yul\":4773:5137   */\n      swap3\n      swap2\n      pop\n      pop\n      jump\t// out\n        /* \"#utility.yul\":5143:5558   */\n    tag_14:\n        /* \"#utility.yul\":5280:5284   */\n      0x00\n        /* \"#utility.yul\":5318:5320   */\n      0x40\n        /* \"#utility.yul\":5307:5316   */\n      dup3\n        /* \"#utility.yul\":5303:5321   */\n      add\n        /* \"#utility.yul\":5295:5321   */\n      swap1\n      pop\n        /* \"#utility.yul\":5331:5398   */\n      tag_158\n        /* \"#utility.yul\":5395:5396   */\n      0x00\n        /* \"#utility.yul\":5384:5393   */\n      dup4\n        /* \"#utility.yul\":5380:5397   */\n      add\n        /* \"#utility.yul\":5371:5377   */\n      dup6\n        /* \"#utility.yul\":5331:5398   */\n      tag_81\n      jump\t// in\n    tag_158:\n        /* \"#utility.yul\":5445:5454   */\n      dup2\n        /* \"#utility.yul\":5439:5443   */\n      dup2\n        /* \"#utility.yul\":5435:5455   */\n      sub\n        /* \"#utility.yul\":5430:5432   */\n      0x20\n        /* \"#utility.yul\":5419:5428   */\n      dup4\n        /* \"#utility.yul\":5415:5433   */\n      add\n        /* \"#utility.yul\":5408:5456   */\n      mstore\n        /* \"#utility.yul\":5473:5551   */\n      tag_159\n        /* \"#utility.yul\":5546:5550   */\n      dup2\n        /* \"#utility.yul\":5537:5543   */\n      dup5\n        /* \"#utility.yul\":5473:5551   */\n      tag_85\n      jump\t// in\n    tag_159:\n        /* \"#utility.yul\":5465:5551   */\n      swap1\n      pop\n        /* \"#utility.yul\":5143:5558   */\n      swap4\n      swap3\n      pop\n      pop\n      pop\n      jump\t// out\n        /* \"#utility.yul\":5564:5893   */\n    tag_17:\n        /* \"#utility.yul\":5623:5629   */\n      0x00\n        /* \"#utility.yul\":5672:5674   */\n      0x20\n        /* \"#utility.yul\":5660:5669   */\n      dup3\n        /* \"#utility.yul\":5651:5658   */\n      dup5\n        /* \"#utility.yul\":5647:5670   */\n      sub\n        /* \"#utility.yul\":5643:5675   */\n      slt\n        /* \"#utility.yul\":5640:5759   */\n      iszero\n      tag_161\n      jumpi\n        /* \"#utility.yul\":5678:5757   */\n      tag_162\n      tag_63\n      jump\t// in\n    tag_162:\n        /* \"#utility.yul\":5640:5759   */\n    tag_161:\n        /* \"#utility.yul\":5798:5799   */\n      0x00\n        /* \"#utility.yul\":5823:5876   */\n      tag_163\n        /* \"#utility.yul\":5868:5875   */\n      dup5\n        /* \"#utility.yul\":5859:5865   */\n      dup3\n        /* \"#utility.yul\":5848:5857   */\n      dup6\n        /* \"#utility.yul\":5844:5866   */\n      add\n        /* \"#utility.yul\":5823:5876   */\n      tag_80\n      jump\t// in\n    tag_163:\n        /* \"#utility.yul\":5813:5876   */\n      swap2\n      pop\n        /* \"#utility.yul\":5769:5886   */\n      pop\n        /* \"#utility.yul\":5564:5893   */\n      swap3\n      swap2\n      pop\n      pop\n      jump\t// out\n        /* \"#utility.yul\":5899:6017   */\n    tag_86:\n        /* \"#utility.yul\":5986:6010   */\n      tag_165\n        /* \"#utility.yul\":6004:6009   */\n      dup2\n        /* \"#utility.yul\":5986:6010   */\n      tag_78\n      jump\t// in\n    tag_165:\n        /* \"#utility.yul\":5981:5984   */\n      dup3\n        /* \"#utility.yul\":5974:6011   */\n      mstore\n        /* \"#utility.yul\":5899:6017   */\n      pop\n      pop\n      jump\t// out\n        /* \"#utility.yul\":6023:6245   */\n    tag_20:\n        /* \"#utility.yul\":6116:6120   */\n      0x00\n        /* \"#utility.yul\":6154:6156   */\n      0x20\n        /* \"#utility.yul\":6143:6152   */\n      dup3\n        /* \"#utility.yul\":6139:6157   */\n      add\n        /* \"#utility.yul\":6131:6157   */\n      swap1\n      pop\n        /* \"#utility.yul\":6167:6238   */\n      tag_167\n        /* \"#utility.yul\":6235:6236   */\n      0x00\n        /* \"#utility.yul\":6224:6233   */\n      dup4\n        /* \"#utility.yul\":6220:6237   */\n      add\n        /* \"#utility.yul\":6211:6217   */\n      dup5\n        /* \"#utility.yul\":6167:6238   */\n      tag_86\n      jump\t// in\n    tag_167:\n        /* \"#utility.yul\":6023:6245   */\n      swap3\n      swap2\n      pop\n      pop\n      jump\t// out\n        /* \"#utility.yul\":6251:6353   */\n    tag_87:\n        /* \"#utility.yul\":6324:6346   */\n      tag_169\n        /* \"#utility.yul\":6340:6345   */\n      dup2\n        /* \"#utility.yul\":6324:6346   */\n      tag_65\n      jump\t// in\n    tag_169:\n        /* \"#utility.yul\":6319:6322   */\n      dup3\n        /* \"#utility.yul\":6312:6347   */\n      mstore\n        /* \"#utility.yul\":6251:6353   */\n      pop\n      pop\n      jump\t// out\n        /* \"#utility.yul\":6359:6518   */\n    tag_88:\n        /* \"#utility.yul\":6433:6444   */\n      0x00\n        /* \"#utility.yul\":6467:6473   */\n      dup3\n        /* \"#utility.yul\":6462:6465   */\n      dup3\n        /* \"#utility.yul\":6455:6474   */\n      mstore\n        /* \"#utility.yul\":6507:6511   */\n      0x20\n        /* \"#utility.yul\":6502:6505   */\n      dup3\n        /* \"#utility.yul\":6498:6512   */\n      add\n        /* \"#utility.yul\":6483:6512   */\n      swap1\n      pop\n        /* \"#utility.yul\":6359:6518   */\n      swap3\n      swap2\n      pop\n      pop\n      jump\t// out\n        /* \"#utility.yul\":6524:6868   */\n    tag_89:\n        /* \"#utility.yul\":6602:6605   */\n      0x00\n        /* \"#utility.yul\":6630:6669   */\n      tag_172\n        /* \"#utility.yul\":6663:6668   */\n      dup3\n        /* \"#utility.yul\":6630:6669   */\n      tag_82\n      jump\t// in\n    tag_172:\n        /* \"#utility.yul\":6685:6746   */\n      tag_173\n        /* \"#utility.yul\":6739:6745   */\n      dup2\n        /* \"#utility.yul\":6734:6737   */\n      dup6\n        /* \"#utility.yul\":6685:6746   */\n      tag_88\n      jump\t// in\n    tag_173:\n        /* \"#utility.yul\":6678:6746   */\n      swap4\n      pop\n        /* \"#utility.yul\":6755:6807   */\n      tag_174\n        /* \"#utility.yul\":6800:6806   */\n      dup2\n        /* \"#utility.yul\":6795:6798   */\n      dup6\n        /* \"#utility.yul\":6788:6792   */\n      0x20\n        /* \"#utility.yul\":6781:6786   */\n      dup7\n        /* \"#utility.yul\":6777:6793   */\n      add\n        /* \"#utility.yul\":6755:6807   */\n      tag_84\n      jump\t// in\n    tag_174:\n        /* \"#utility.yul\":6832:6861   */\n      tag_175\n        /* \"#utility.yul\":6854:6860   */\n      dup2\n        /* \"#utility.yul\":6832:6861   */\n      tag_70\n      jump\t// in\n    tag_175:\n        /* \"#utility.yul\":6827:6830   */\n      dup5\n        /* \"#utility.yul\":6823:6862   */\n      add\n        /* \"#utility.yul\":6816:6862   */\n      swap2\n      pop\n        /* \"#utility.yul\":6606:6868   */\n      pop\n        /* \"#utility.yul\":6524:6868   */\n      swap3\n      swap2\n      pop\n      pop\n      jump\t// out\n        /* \"#utility.yul\":6914:7511   */\n    tag_90:\n        /* \"#utility.yul\":7027:7030   */\n      0x00\n        /* \"#utility.yul\":7063:7067   */\n      0x40\n        /* \"#utility.yul\":7058:7061   */\n      dup4\n        /* \"#utility.yul\":7054:7068   */\n      add\n        /* \"#utility.yul\":7151:7155   */\n      0x00\n        /* \"#utility.yul\":7144:7149   */\n      dup4\n        /* \"#utility.yul\":7140:7156   */\n      add\n        /* \"#utility.yul\":7134:7157   */\n      mload\n        /* \"#utility.yul\":7170:7229   */\n      tag_177\n        /* \"#utility.yul\":7223:7227   */\n      0x00\n        /* \"#utility.yul\":7218:7221   */\n      dup7\n        /* \"#utility.yul\":7214:7228   */\n      add\n        /* \"#utility.yul\":7200:7212   */\n      dup3\n        /* \"#utility.yul\":7170:7229   */\n      tag_87\n      jump\t// in\n    tag_177:\n        /* \"#utility.yul\":7078:7239   */\n      pop\n        /* \"#utility.yul\":7321:7325   */\n      0x20\n        /* \"#utility.yul\":7314:7319   */\n      dup4\n        /* \"#utility.yul\":7310:7326   */\n      add\n        /* \"#utility.yul\":7304:7327   */\n      mload\n        /* \"#utility.yul\":7374:7377   */\n      dup5\n        /* \"#utility.yul\":7368:7372   */\n      dup3\n        /* \"#utility.yul\":7364:7378   */\n      sub\n        /* \"#utility.yul\":7357:7361   */\n      0x20\n        /* \"#utility.yul\":7352:7355   */\n      dup7\n        /* \"#utility.yul\":7348:7362   */\n      add\n        /* \"#utility.yul\":7341:7379   */\n      mstore\n        /* \"#utility.yul\":7400:7473   */\n      tag_178\n        /* \"#utility.yul\":7468:7472   */\n      dup3\n        /* \"#utility.yul\":7454:7466   */\n      dup3\n        /* \"#utility.yul\":7400:7473   */\n      tag_89\n      jump\t// in\n    tag_178:\n        /* \"#utility.yul\":7392:7473   */\n      swap2\n      pop\n        /* \"#utility.yul\":7249:7484   */\n      pop\n        /* \"#utility.yul\":7501:7505   */\n      dup1\n        /* \"#utility.yul\":7494:7505   */\n      swap2\n      pop\n        /* \"#utility.yul\":7032:7511   */\n      pop\n        /* \"#utility.yul\":6914:7511   */\n      swap3\n      swap2\n      pop\n      pop\n      jump\t// out\n        /* \"#utility.yul\":7517:7878   */\n    tag_25:\n        /* \"#utility.yul\":7654:7658   */\n      0x00\n        /* \"#utility.yul\":7692:7694   */\n      0x20\n        /* \"#utility.yul\":7681:7690   */\n      dup3\n        /* \"#utility.yul\":7677:7695   */\n      add\n        /* \"#utility.yul\":7669:7695   */\n      swap1\n      pop\n        /* \"#utility.yul\":7741:7750   */\n      dup2\n        /* \"#utility.yul\":7735:7739   */\n      dup2\n        /* \"#utility.yul\":7731:7751   */\n      sub\n        /* \"#utility.yul\":7727:7728   */\n      0x00\n        /* \"#utility.yul\":7716:7725   */\n      dup4\n        /* \"#utility.yul\":7712:7729   */\n      add\n        /* \"#utility.yul\":7705:7752   */\n      mstore\n        /* \"#utility.yul\":7769:7871   */\n      tag_180\n        /* \"#utility.yul\":7866:7870   */\n      dup2\n        /* \"#utility.yul\":7857:7863   */\n      dup5\n        /* \"#utility.yul\":7769:7871   */\n      tag_90\n      jump\t// in\n    tag_180:\n        /* \"#utility.yul\":7761:7871   */\n      swap1\n      pop\n        /* \"#utility.yul\":7517:7878   */\n      swap3\n      swap2\n      pop\n      pop\n      jump\t// out\n        /* \"#utility.yul\":7884:8064   */\n    tag_91:\n        /* \"#utility.yul\":7932:8009   */\n      0x4e487b7100000000000000000000000000000000000000000000000000000000\n        /* \"#utility.yul\":7929:7930   */\n      0x00\n        /* \"#utility.yul\":7922:8010   */\n      mstore\n        /* \"#utility.yul\":8029:8033   */\n      0x22\n        /* \"#utility.yul\":8026:8027   */\n      0x04\n        /* \"#utility.yul\":8019:8034   */\n      mstore\n        /* \"#utility.yul\":8053:8057   */\n      0x24\n        /* \"#utility.yul\":8050:8051   */\n      0x00\n        /* \"#utility.yul\":8043:8058   */\n      revert\n        /* \"#utility.yul\":8070:8390   */\n    tag_30:\n        /* \"#utility.yul\":8114:8120   */\n      0x00\n        /* \"#utility.yul\":8151:8152   */\n      0x02\n        /* \"#utility.yul\":8145:8149   */\n      dup3\n        /* \"#utility.yul\":8141:8153   */\n      div\n        /* \"#utility.yul\":8131:8153   */\n      swap1\n      pop\n        /* \"#utility.yul\":8198:8199   */\n      0x01\n        /* \"#utility.yul\":8192:8196   */\n      dup3\n        /* \"#utility.yul\":8188:8200   */\n      and\n        /* \"#utility.yul\":8219:8237   */\n      dup1\n        /* \"#utility.yul\":8209:8290   */\n      tag_183\n      jumpi\n        /* \"#utility.yul\":8275:8279   */\n      0x7f\n        /* \"#utility.yul\":8267:8273   */\n      dup3\n        /* \"#utility.yul\":8263:8280   */\n      and\n        /* \"#utility.yul\":8253:8280   */\n      swap2\n      pop\n        /* \"#utility.yul\":8209:8290   */\n    tag_183:\n        /* \"#utility.yul\":8337:8339   */\n      0x20\n        /* \"#utility.yul\":8329:8335   */\n      dup3\n        /* \"#utility.yul\":8326:8340   */\n      lt\n        /* \"#utility.yul\":8306:8324   */\n      dup2\n        /* \"#utility.yul\":8303:8341   */\n      eq\n        /* \"#utility.yul\":8300:8384   */\n      iszero\n      tag_184\n      jumpi\n        /* \"#utility.yul\":8356:8374   */\n      tag_185\n      tag_91\n      jump\t// in\n    tag_185:\n        /* \"#utility.yul\":8300:8384   */\n    tag_184:\n        /* \"#utility.yul\":8121:8390   */\n      pop\n        /* \"#utility.yul\":8070:8390   */\n      swap2\n      swap1\n      pop\n      jump\t// out\n        /* \"#utility.yul\":8396:8576   */\n    tag_92:\n        /* \"#utility.yul\":8444:8521   */\n      0x4e487b7100000000000000000000000000000000000000000000000000000000\n        /* \"#utility.yul\":8441:8442   */\n      0x00\n        /* \"#utility.yul\":8434:8522   */\n      mstore\n        /* \"#utility.yul\":8541:8545   */\n      0x11\n        /* \"#utility.yul\":8538:8539   */\n      0x04\n        /* \"#utility.yul\":8531:8546   */\n      mstore\n        /* \"#utility.yul\":8565:8569   */\n      0x24\n        /* \"#utility.yul\":8562:8563   */\n      0x00\n        /* \"#utility.yul\":8555:8570   */\n      revert\n        /* \"#utility.yul\":8582:8887   */\n    tag_51:\n        /* \"#utility.yul\":8622:8625   */\n      0x00\n        /* \"#utility.yul\":8641:8661   */\n      tag_188\n        /* \"#utility.yul\":8659:8660   */\n      dup3\n        /* \"#utility.yul\":8641:8661   */\n      tag_78\n      jump\t// in\n    tag_188:\n        /* \"#utility.yul\":8636:8661   */\n      swap2\n      pop\n        /* \"#utility.yul\":8675:8695   */\n      tag_189\n        /* \"#utility.yul\":8693:8694   */\n      dup4\n        /* \"#utility.yul\":8675:8695   */\n      tag_78\n      jump\t// in\n    tag_189:\n        /* \"#utility.yul\":8670:8695   */\n      swap3\n      pop\n        /* \"#utility.yul\":8829:8830   */\n      dup3\n        /* \"#utility.yul\":8761:8827   */\n      0xffffffffffffffffffffffffffffffffffffffffffffffffffffffffffffffff\n        /* \"#utility.yul\":8757:8831   */\n      sub\n        /* \"#utility.yul\":8754:8755   */\n      dup3\n        /* \"#utility.yul\":8751:8832   */\n      gt\n        /* \"#utility.yul\":8748:8855   */\n      iszero\n      tag_190\n      jumpi\n        /* \"#utility.yul\":8835:8853   */\n      tag_191\n      tag_92\n      jump\t// in\n    tag_191:\n        /* \"#utility.yul\":8748:8855   */\n    tag_190:\n        /* \"#utility.yul\":8879:8880   */\n      dup3\n        /* \"#utility.yul\":8876:8877   */\n      dup3\n        /* \"#utility.yul\":8872:8881   */\n      add\n        /* \"#utility.yul\":8865:8881   */\n      swap1\n      pop\n        /* \"#utility.yul\":8582:8887   */\n      swap3\n      swap2\n      pop\n      pop\n      jump\t// out\n\n    auxdata: 0xa26469706673582212208b20533d8629203c7b422d7c1132b470ab3ef7f2a075924213b89a5f13821b5864736f6c63430008090033\n}\n",
				"bytecode": {
					"linkReferences": {},
					"object": "608060405234801561001057600080fd5b506108ff806100206000396000f3fe608060405234801561001057600080fd5b506004361061004c5760003560e01c8063284053a114610051578063757efb7a1461006d5780639f3abb851461008c578063ea7a7aba146100bc575b600080fd5b61006b6004803603810190610066919061059e565b6100ec565b005b61007561010d565b6040516100839291906106a4565b60405180910390f35b6100a660048036038101906100a191906106d4565b6101b4565b6040516100b39190610710565b60405180910390f35b6100d660048036038101906100d191906106d4565b6101d2565b6040516100e391906107c1565b60405180910390f35b6101088383600c600360006102ae90949392919063ffffffff16565b505050565b60008060000160009054906101000a900460ff169080600101805461013190610812565b80601f016020809104026020016040519081016040528092919081815260200182805461015d90610812565b80156101aa5780601f1061017f576101008083540402835291602001916101aa565b820191906000526020600020905b81548152906001019060200180831161018d57829003601f168201915b5050505050905082565b60006101cb826002546102ff90919063ffffffff16565b9050919050565b6101da610315565b600360008381526020019081526020016000206040518060400160405290816000820160009054906101000a900460ff1660ff1660ff16815260200160018201805461022590610812565b80601f016020809104026020016040519081016040528092919081815260200182805461025190610812565b801561029e5780601f106102735761010080835404028352916020019161029e565b820191906000526020600020905b81548152906001019060200180831161028157829003601f168201915b5050505050815250509050919050565b8060008381526020019081526020016000209450838560000160006101000a81548160ff021916908360ff160217905550828560010190805190602001906102f7929190610332565b505050505050565b6000818361030d9190610873565b905092915050565b6040518060400160405280600060ff168152602001606081525090565b82805461033e90610812565b90600052602060002090601f01602090048101928261036057600085556103a7565b82601f1061037957805160ff19168380011785556103a7565b828001600101855582156103a7579182015b828111156103a657825182559160200191906001019061038b565b5b5090506103b491906103b8565b5090565b5b808211156103d15760008160009055506001016103b9565b5090565b6000604051905090565b600080fd5b600080fd5b600060ff82169050919050565b6103ff816103e9565b811461040a57600080fd5b50565b60008135905061041c816103f6565b92915050565b600080fd5b600080fd5b6000601f19601f8301169050919050565b7f4e487b7100000000000000000000000000000000000000000000000000000000600052604160045260246000fd5b6104758261042c565b810181811067ffffffffffffffff821117156104945761049361043d565b5b80604052505050565b60006104a76103d5565b90506104b3828261046c565b919050565b600067ffffffffffffffff8211156104d3576104d261043d565b5b6104dc8261042c565b9050602081019050919050565b82818337600083830152505050565b600061050b610506846104b8565b61049d565b90508281526020810184848401111561052757610526610427565b5b6105328482856104e9565b509392505050565b600082601f83011261054f5761054e610422565b5b813561055f8482602086016104f8565b91505092915050565b6000819050919050565b61057b81610568565b811461058657600080fd5b50565b60008135905061059881610572565b92915050565b6000806000606084860312156105b7576105b66103df565b5b60006105c58682870161040d565b935050602084013567ffffffffffffffff8111156105e6576105e56103e4565b5b6105f28682870161053a565b925050604061060386828701610589565b9150509250925092565b610616816103e9565b82525050565b600081519050919050565b600082825260208201905092915050565b60005b8381101561065657808201518184015260208101905061063b565b83811115610665576000848401525b50505050565b60006106768261061c565b6106808185610627565b9350610690818560208601610638565b6106998161042c565b840191505092915050565b60006040820190506106b9600083018561060d565b81810360208301526106cb818461066b565b90509392505050565b6000602082840312156106ea576106e96103df565b5b60006106f884828501610589565b91505092915050565b61070a81610568565b82525050565b60006020820190506107256000830184610701565b92915050565b610734816103e9565b82525050565b600082825260208201905092915050565b60006107568261061c565b610760818561073a565b9350610770818560208601610638565b6107798161042c565b840191505092915050565b600060408301600083015161079c600086018261072b565b50602083015184820360208601526107b4828261074b565b9150508091505092915050565b600060208201905081810360008301526107db8184610784565b905092915050565b7f4e487b7100000000000000000000000000000000000000000000000000000000600052602260045260246000fd5b6000600282049050600182168061082a57607f821691505b6020821081141561083e5761083d6107e3565b5b50919050565b7f4e487b7100000000000000000000000000000000000000000000000000000000600052601160045260246000fd5b600061087e82610568565b915061088983610568565b9250827fffffffffffffffffffffffffffffffffffffffffffffffffffffffffffffffff038211156108be576108bd610844565b5b82820190509291505056fea26469706673582212208b20533d8629203c7b422d7c1132b470ab3ef7f2a075924213b89a5f13821b5864736f6c63430008090033",
					"opcodes": "PUSH1 0x80 PUSH1 0x40 MSTORE CALLVALUE DUP1 ISZERO PUSH2 0x10 JUMPI PUSH1 0x0 DUP1 REVERT JUMPDEST POP PUSH2 0x8FF DUP1 PUSH2 0x20 PUSH1 0x0 CODECOPY PUSH1 0x0 RETURN INVALID PUSH1 0x80 PUSH1 0x40 MSTORE CALLVALUE DUP1 ISZERO PUSH2 0x10 JUMPI PUSH1 0x0 DUP1 REVERT JUMPDEST POP PUSH1 0x4 CALLDATASIZE LT PUSH2 0x4C JUMPI PUSH1 0x0 CALLDATALOAD PUSH1 0xE0 SHR DUP1 PUSH4 0x284053A1 EQ PUSH2 0x51 JUMPI DUP1 PUSH4 0x757EFB7A EQ PUSH2 0x6D JUMPI DUP1 PUSH4 0x9F3ABB85 EQ PUSH2 0x8C JUMPI DUP1 PUSH4 0xEA7A7ABA EQ PUSH2 0xBC JUMPI JUMPDEST PUSH1 0x0 DUP1 REVERT JUMPDEST PUSH2 0x6B PUSH1 0x4 DUP1 CALLDATASIZE SUB DUP2 ADD SWAP1 PUSH2 0x66 SWAP2 SWAP1 PUSH2 0x59E JUMP JUMPDEST PUSH2 0xEC JUMP JUMPDEST STOP JUMPDEST PUSH2 0x75 PUSH2 0x10D JUMP JUMPDEST PUSH1 0x40 MLOAD PUSH2 0x83 SWAP3 SWAP2 SWAP1 PUSH2 0x6A4 JUMP JUMPDEST PUSH1 0x40 MLOAD DUP1 SWAP2 SUB SWAP1 RETURN JUMPDEST PUSH2 0xA6 PUSH1 0x4 DUP1 CALLDATASIZE SUB DUP2 ADD SWAP1 PUSH2 0xA1 SWAP2 SWAP1 PUSH2 0x6D4 JUMP JUMPDEST PUSH2 0x1B4 JUMP JUMPDEST PUSH1 0x40 MLOAD PUSH2 0xB3 SWAP2 SWAP1 PUSH2 0x710 JUMP JUMPDEST PUSH1 0x40 MLOAD DUP1 SWAP2 SUB SWAP1 RETURN JUMPDEST PUSH2 0xD6 PUSH1 0x4 DUP1 CALLDATASIZE SUB DUP2 ADD SWAP1 PUSH2 0xD1 SWAP2 SWAP1 PUSH2 0x6D4 JUMP JUMPDEST PUSH2 0x1D2 JUMP JUMPDEST PUSH1 0x40 MLOAD PUSH2 0xE3 SWAP2 SWAP1 PUSH2 0x7C1 JUMP JUMPDEST PUSH1 0x40 MLOAD DUP1 SWAP2 SUB SWAP1 RETURN JUMPDEST PUSH2 0x108 DUP4 DUP4 PUSH1 0xC PUSH1 0x3 PUSH1 0x0 PUSH2 0x2AE SWAP1 SWAP5 SWAP4 SWAP3 SWAP2 SWAP1 PUSH4 0xFFFFFFFF AND JUMP JUMPDEST POP POP POP JUMP JUMPDEST PUSH1 0x0 DUP1 PUSH1 0x0 ADD PUSH1 0x0 SWAP1 SLOAD SWAP1 PUSH2 0x100 EXP SWAP1 DIV PUSH1 0xFF AND SWAP1 DUP1 PUSH1 0x1 ADD DUP1 SLOAD PUSH2 0x131 SWAP1 PUSH2 0x812 JUMP JUMPDEST DUP1 PUSH1 0x1F ADD PUSH1 0x20 DUP1 SWAP2 DIV MUL PUSH1 0x20 ADD PUSH1 0x40 MLOAD SWAP1 DUP2 ADD PUSH1 0x40 MSTORE DUP1 SWAP3 SWAP2 SWAP1 DUP2 DUP2 MSTORE PUSH1 0x20 ADD DUP3 DUP1 SLOAD PUSH2 0x15D SWAP1 PUSH2 0x812 JUMP JUMPDEST DUP1 ISZERO PUSH2 0x1AA JUMPI DUP1 PUSH1 0x1F LT PUSH2 0x17F JUMPI PUSH2 0x100 DUP1 DUP4 SLOAD DIV MUL DUP4 MSTORE SWAP2 PUSH1 0x20 ADD SWAP2 PUSH2 0x1AA JUMP JUMPDEST DUP3 ADD SWAP2 SWAP1 PUSH1 0x0 MSTORE PUSH1 0x20 PUSH1 0x0 KECCAK256 SWAP1 JUMPDEST DUP2 SLOAD DUP2 MSTORE SWAP1 PUSH1 0x1 ADD SWAP1 PUSH1 0x20 ADD DUP1 DUP4 GT PUSH2 0x18D JUMPI DUP3 SWAP1 SUB PUSH1 0x1F AND DUP3 ADD SWAP2 JUMPDEST POP POP POP POP POP SWAP1 POP DUP3 JUMP JUMPDEST PUSH1 0x0 PUSH2 0x1CB DUP3 PUSH1 0x2 SLOAD PUSH2 0x2FF SWAP1 SWAP2 SWAP1 PUSH4 0xFFFFFFFF AND JUMP JUMPDEST SWAP1 POP SWAP2 SWAP1 POP JUMP JUMPDEST PUSH2 0x1DA PUSH2 0x315 JUMP JUMPDEST PUSH1 0x3 PUSH1 0x0 DUP4 DUP2 MSTORE PUSH1 0x20 ADD SWAP1 DUP2 MSTORE PUSH1 0x20 ADD PUSH1 0x0 KECCAK256 PUSH1 0x40 MLOAD DUP1 PUSH1 0x40 ADD PUSH1 0x40 MSTORE SWAP1 DUP2 PUSH1 0x0 DUP3 ADD PUSH1 0x0 SWAP1 SLOAD SWAP1 PUSH2 0x100 EXP SWAP1 DIV PUSH1 0xFF AND PUSH1 0xFF AND PUSH1 0xFF AND DUP2 MSTORE PUSH1 0x20 ADD PUSH1 0x1 DUP3 ADD DUP1 SLOAD PUSH2 0x225 SWAP1 PUSH2 0x812 JUMP JUMPDEST DUP1 PUSH1 0x1F ADD PUSH1 0x20 DUP1 SWAP2 DIV MUL PUSH1 0x20 ADD PUSH1 0x40 MLOAD SWAP1 DUP2 ADD PUSH1 0x40 MSTORE DUP1 SWAP3 SWAP2 SWAP1 DUP2 DUP2 MSTORE PUSH1 0x20 ADD DUP3 DUP1 SLOAD PUSH2 0x251 SWAP1 PUSH2 0x812 JUMP JUMPDEST DUP1 ISZERO PUSH2 0x29E JUMPI DUP1 PUSH1 0x1F LT PUSH2 0x273 JUMPI PUSH2 0x100 DUP1 DUP4 SLOAD DIV MUL DUP4 MSTORE SWAP2 PUSH1 0x20 ADD SWAP2 PUSH2 0x29E JUMP JUMPDEST DUP3 ADD SWAP2 SWAP1 PUSH1 0x0 MSTORE PUSH1 0x20 PUSH1 0x0 KECCAK256 SWAP1 JUMPDEST DUP2 SLOAD DUP2 MSTORE SWAP1 PUSH1 0x1 ADD SWAP1 PUSH1 0x20 ADD DUP1 DUP4 GT PUSH2 0x281 JUMPI DUP3 SWAP1 SUB PUSH1 0x1F AND DUP3 ADD SWAP2 JUMPDEST POP POP POP POP POP DUP2 MSTORE POP POP SWAP1 POP SWAP2 SWAP1 POP JUMP JUMPDEST DUP1 PUSH1 0x0 DUP4 DUP2 MSTORE PUSH1 0x20 ADD SWAP1 DUP2 MSTORE PUSH1 0x20 ADD PUSH1 0x0 KECCAK256 SWAP5 POP DUP4 DUP6 PUSH1 0x0 ADD PUSH1 0x0 PUSH2 0x100 EXP DUP2 SLOAD DUP2 PUSH1 0xFF MUL NOT AND SWAP1 DUP4 PUSH1 0xFF AND MUL OR SWAP1 SSTORE POP DUP3 DUP6 PUSH1 0x1 ADD SWAP1 DUP1 MLOAD SWAP1 PUSH1 0x20 ADD SWAP1 PUSH2 0x2F7 SWAP3 SWAP2 SWAP1 PUSH2 0x332 JUMP JUMPDEST POP POP POP POP POP POP JUMP JUMPDEST PUSH1 0x0 DUP2 DUP4 PUSH2 0x30D SWAP2 SWAP1 PUSH2 0x873 JUMP JUMPDEST SWAP1 POP SWAP3 SWAP2 POP POP JUMP JUMPDEST PUSH1 0x40 MLOAD DUP1 PUSH1 0x40 ADD PUSH1 0x40 MSTORE DUP1 PUSH1 0x0 PUSH1 0xFF AND DUP2 MSTORE PUSH1 0x20 ADD PUSH1 0x60 DUP2 MSTORE POP SWAP1 JUMP JUMPDEST DUP3 DUP1 SLOAD PUSH2 0x33E SWAP1 PUSH2 0x812 JUMP JUMPDEST SWAP1 PUSH1 0x0 MSTORE PUSH1 0x20 PUSH1 0x0 KECCAK256 SWAP1 PUSH1 0x1F ADD PUSH1 0x20 SWAP1 DIV DUP2 ADD SWAP3 DUP3 PUSH2 0x360 JUMPI PUSH1 0x0 DUP6 SSTORE PUSH2 0x3A7 JUMP JUMPDEST DUP3 PUSH1 0x1F LT PUSH2 0x379 JUMPI DUP1 MLOAD PUSH1 0xFF NOT AND DUP4 DUP1 ADD OR DUP6 SSTORE PUSH2 0x3A7 JUMP JUMPDEST DUP3 DUP1 ADD PUSH1 0x1 ADD DUP6 SSTORE DUP3 ISZERO PUSH2 0x3A7 JUMPI SWAP2 DUP3 ADD JUMPDEST DUP3 DUP2 GT ISZERO PUSH2 0x3A6 JUMPI DUP3 MLOAD DUP3 SSTORE SWAP2 PUSH1 0x20 ADD SWAP2 SWAP1 PUSH1 0x1 ADD SWAP1 PUSH2 0x38B JUMP JUMPDEST JUMPDEST POP SWAP1 POP PUSH2 0x3B4 SWAP2 SWAP1 PUSH2 0x3B8 JUMP JUMPDEST POP SWAP1 JUMP JUMPDEST JUMPDEST DUP1 DUP3 GT ISZERO PUSH2 0x3D1 JUMPI PUSH1 0x0 DUP2 PUSH1 0x0 SWAP1 SSTORE POP PUSH1 0x1 ADD PUSH2 0x3B9 JUMP JUMPDEST POP SWAP1 JUMP JUMPDEST PUSH1 0x0 PUSH1 0x40 MLOAD SWAP1 POP SWAP1 JUMP JUMPDEST PUSH1 0x0 DUP1 REVERT JUMPDEST PUSH1 0x0 DUP1 REVERT JUMPDEST PUSH1 0x0 PUSH1 0xFF DUP3 AND SWAP1 POP SWAP2 SWAP1 POP JUMP JUMPDEST PUSH2 0x3FF DUP2 PUSH2 0x3E9 JUMP JUMPDEST DUP2 EQ PUSH2 0x40A JUMPI PUSH1 0x0 DUP1 REVERT JUMPDEST POP JUMP JUMPDEST PUSH1 0x0 DUP2 CALLDATALOAD SWAP1 POP PUSH2 0x41C DUP2 PUSH2 0x3F6 JUMP JUMPDEST SWAP3 SWAP2 POP POP JUMP JUMPDEST PUSH1 0x0 DUP1 REVERT JUMPDEST PUSH1 0x0 DUP1 REVERT JUMPDEST PUSH1 0x0 PUSH1 0x1F NOT PUSH1 0x1F DUP4 ADD AND SWAP1 POP SWAP2 SWAP1 POP JUMP JUMPDEST PUSH32 0x4E487B7100000000000000000000000000000000000000000000000000000000 PUSH1 0x0 MSTORE PUSH1 0x41 PUSH1 0x4 MSTORE PUSH1 0x24 PUSH1 0x0 REVERT JUMPDEST PUSH2 0x475 DUP3 PUSH2 0x42C JUMP JUMPDEST DUP2 ADD DUP2 DUP2 LT PUSH8 0xFFFFFFFFFFFFFFFF DUP3 GT OR ISZERO PUSH2 0x494 JUMPI PUSH2 0x493 PUSH2 0x43D JUMP JUMPDEST JUMPDEST DUP1 PUSH1 0x40 MSTORE POP POP POP JUMP JUMPDEST PUSH1 0x0 PUSH2 0x4A7 PUSH2 0x3D5 JUMP JUMPDEST SWAP1 POP PUSH2 0x4B3 DUP3 DUP3 PUSH2 0x46C JUMP JUMPDEST SWAP2 SWAP1 POP JUMP JUMPDEST PUSH1 0x0 PUSH8 0xFFFFFFFFFFFFFFFF DUP3 GT ISZERO PUSH2 0x4D3 JUMPI PUSH2 0x4D2 PUSH2 0x43D JUMP JUMPDEST JUMPDEST PUSH2 0x4DC DUP3 PUSH2 0x42C JUMP JUMPDEST SWAP1 POP PUSH1 0x20 DUP2 ADD SWAP1 POP SWAP2 SWAP1 POP JUMP JUMPDEST DUP3 DUP2 DUP4 CALLDATACOPY PUSH1 0x0 DUP4 DUP4 ADD MSTORE POP POP POP JUMP JUMPDEST PUSH1 0x0 PUSH2 0x50B PUSH2 0x506 DUP5 PUSH2 0x4B8 JUMP JUMPDEST PUSH2 0x49D JUMP JUMPDEST SWAP1 POP DUP3 DUP2 MSTORE PUSH1 0x20 DUP2 ADD DUP5 DUP5 DUP5 ADD GT ISZERO PUSH2 0x527 JUMPI PUSH2 0x526 PUSH2 0x427 JUMP JUMPDEST JUMPDEST PUSH2 0x532 DUP5 DUP3 DUP6 PUSH2 0x4E9 JUMP JUMPDEST POP SWAP4 SWAP3 POP POP POP JUMP JUMPDEST PUSH1 0x0 DUP3 PUSH1 0x1F DUP4 ADD SLT PUSH2 0x54F JUMPI PUSH2 0x54E PUSH2 0x422 JUMP JUMPDEST JUMPDEST DUP2 CALLDATALOAD PUSH2 0x55F DUP5 DUP3 PUSH1 0x20 DUP7 ADD PUSH2 0x4F8 JUMP JUMPDEST SWAP2 POP POP SWAP3 SWAP2 POP POP JUMP JUMPDEST PUSH1 0x0 DUP2 SWAP1 POP SWAP2 SWAP1 POP JUMP JUMPDEST PUSH2 0x57B DUP2 PUSH2 0x568 JUMP JUMPDEST DUP2 EQ PUSH2 0x586 JUMPI PUSH1 0x0 DUP1 REVERT JUMPDEST POP JUMP JUMPDEST PUSH1 0x0 DUP2 CALLDATALOAD SWAP1 POP PUSH2 0x598 DUP2 PUSH2 0x572 JUMP JUMPDEST SWAP3 SWAP2 POP POP JUMP JUMPDEST PUSH1 0x0 DUP1 PUSH1 0x0 PUSH1 0x60 DUP5 DUP7 SUB SLT ISZERO PUSH2 0x5B7 JUMPI PUSH2 0x5B6 PUSH2 0x3DF JUMP JUMPDEST JUMPDEST PUSH1 0x0 PUSH2 0x5C5 DUP7 DUP3 DUP8 ADD PUSH2 0x40D JUMP JUMPDEST SWAP4 POP POP PUSH1 0x20 DUP5 ADD CALLDATALOAD PUSH8 0xFFFFFFFFFFFFFFFF DUP2 GT ISZERO PUSH2 0x5E6 JUMPI PUSH2 0x5E5 PUSH2 0x3E4 JUMP JUMPDEST JUMPDEST PUSH2 0x5F2 DUP7 DUP3 DUP8 ADD PUSH2 0x53A JUMP JUMPDEST SWAP3 POP POP PUSH1 0x40 PUSH2 0x603 DUP7 DUP3 DUP8 ADD PUSH2 0x589 JUMP JUMPDEST SWAP2 POP POP SWAP3 POP SWAP3 POP SWAP3 JUMP JUMPDEST PUSH2 0x616 DUP2 PUSH2 0x3E9 JUMP JUMPDEST DUP3 MSTORE POP POP JUMP JUMPDEST PUSH1 0x0 DUP2 MLOAD SWAP1 POP SWAP2 SWAP1 POP JUMP JUMPDEST PUSH1 0x0 DUP3 DUP3 MSTORE PUSH1 0x20 DUP3 ADD SWAP1 POP SWAP3 SWAP2 POP POP JUMP JUMPDEST PUSH1 0x0 JUMPDEST DUP4 DUP2 LT ISZERO PUSH2 0x656 JUMPI DUP1 DUP3 ADD MLOAD DUP2 DUP5 ADD MSTORE PUSH1 0x20 DUP2 ADD SWAP1 POP PUSH2 0x63B JUMP JUMPDEST DUP4 DUP2 GT ISZERO PUSH2 0x665 JUMPI PUSH1 0x0 DUP5 DUP5 ADD MSTORE JUMPDEST POP POP POP POP JUMP JUMPDEST PUSH1 0x0 PUSH2 0x676 DUP3 PUSH2 0x61C JUMP JUMPDEST PUSH2 0x680 DUP2 DUP6 PUSH2 0x627 JUMP JUMPDEST SWAP4 POP PUSH2 0x690 DUP2 DUP6 PUSH1 0x20 DUP7 ADD PUSH2 0x638 JUMP JUMPDEST PUSH2 0x699 DUP2 PUSH2 0x42C JUMP JUMPDEST DUP5 ADD SWAP2 POP POP SWAP3 SWAP2 POP POP JUMP JUMPDEST PUSH1 0x0 PUSH1 0x40 DUP3 ADD SWAP1 POP PUSH2 0x6B9 PUSH1 0x0 DUP4 ADD DUP6 PUSH2 0x60D JUMP JUMPDEST DUP2 DUP2 SUB PUSH1 0x20 DUP4 ADD MSTORE PUSH2 0x6CB DUP2 DUP5 PUSH2 0x66B JUMP JUMPDEST SWAP1 POP SWAP4 SWAP3 POP POP POP JUMP JUMPDEST PUSH1 0x0 PUSH1 0x20 DUP3 DUP5 SUB SLT ISZERO PUSH2 0x6EA JUMPI PUSH2 0x6E9 PUSH2 0x3DF JUMP JUMPDEST JUMPDEST PUSH1 0x0 PUSH2 0x6F8 DUP5 DUP3 DUP6 ADD PUSH2 0x589 JUMP JUMPDEST SWAP2 POP POP SWAP3 SWAP2 POP POP JUMP JUMPDEST PUSH2 0x70A DUP2 PUSH2 0x568 JUMP JUMPDEST DUP3 MSTORE POP POP JUMP JUMPDEST PUSH1 0x0 PUSH1 0x20 DUP3 ADD SWAP1 POP PUSH2 0x725 PUSH1 0x0 DUP4 ADD DUP5 PUSH2 0x701 JUMP JUMPDEST SWAP3 SWAP2 POP POP JUMP JUMPDEST PUSH2 0x734 DUP2 PUSH2 0x3E9 JUMP JUMPDEST DUP3 MSTORE POP POP JUMP JUMPDEST PUSH1 0x0 DUP3 DUP3 MSTORE PUSH1 0x20 DUP3 ADD SWAP1 POP SWAP3 SWAP2 POP POP JUMP JUMPDEST PUSH1 0x0 PUSH2 0x756 DUP3 PUSH2 0x61C JUMP JUMPDEST PUSH2 0x760 DUP2 DUP6 PUSH2 0x73A JUMP JUMPDEST SWAP4 POP PUSH2 0x770 DUP2 DUP6 PUSH1 0x20 DUP7 ADD PUSH2 0x638 JUMP JUMPDEST PUSH2 0x779 DUP2 PUSH2 0x42C JUMP JUMPDEST DUP5 ADD SWAP2 POP POP SWAP3 SWAP2 POP POP JUMP JUMPDEST PUSH1 0x0 PUSH1 0x40 DUP4 ADD PUSH1 0x0 DUP4 ADD MLOAD PUSH2 0x79C PUSH1 0x0 DUP7 ADD DUP3 PUSH2 0x72B JUMP JUMPDEST POP PUSH1 0x20 DUP4 ADD MLOAD DUP5 DUP3 SUB PUSH1 0x20 DUP7 ADD MSTORE PUSH2 0x7B4 DUP3 DUP3 PUSH2 0x74B JUMP JUMPDEST SWAP2 POP POP DUP1 SWAP2 POP POP SWAP3 SWAP2 POP POP JUMP JUMPDEST PUSH1 0x0 PUSH1 0x20 DUP3 ADD SWAP1 POP DUP2 DUP2 SUB PUSH1 0x0 DUP4 ADD MSTORE PUSH2 0x7DB DUP2 DUP5 PUSH2 0x784 JUMP JUMPDEST SWAP1 POP SWAP3 SWAP2 POP POP JUMP JUMPDEST PUSH32 0x4E487B7100000000000000000000000000000000000000000000000000000000 PUSH1 0x0 MSTORE PUSH1 0x22 PUSH1 0x4 MSTORE PUSH1 0x24 PUSH1 0x0 REVERT JUMPDEST PUSH1 0x0 PUSH1 0x2 DUP3 DIV SWAP1 POP PUSH1 0x1 DUP3 AND DUP1 PUSH2 0x82A JUMPI PUSH1 0x7F DUP3 AND SWAP2 POP JUMPDEST PUSH1 0x20 DUP3 LT DUP2 EQ ISZERO PUSH2 0x83E JUMPI PUSH2 0x83D PUSH2 0x7E3 JUMP JUMPDEST JUMPDEST POP SWAP2 SWAP1 POP JUMP JUMPDEST PUSH32 0x4E487B7100000000000000000000000000000000000000000000000000000000 PUSH1 0x0 MSTORE PUSH1 0x11 PUSH1 0x4 MSTORE PUSH1 0x24 PUSH1 0x0 REVERT JUMPDEST PUSH1 0x0 PUSH2 0x87E DUP3 PUSH2 0x568 JUMP JUMPDEST SWAP2 POP PUSH2 0x889 DUP4 PUSH2 0x568 JUMP JUMPDEST SWAP3 POP DUP3 PUSH32 0xFFFFFFFFFFFFFFFFFFFFFFFFFFFFFFFFFFFFFFFFFFFFFFFFFFFFFFFFFFFFFFFF SUB DUP3 GT ISZERO PUSH2 0x8BE JUMPI PUSH2 0x8BD PUSH2 0x844 JUMP JUMPDEST JUMPDEST DUP3 DUP3 ADD SWAP1 POP SWAP3 SWAP2 POP POP JUMP INVALID LOG2 PUSH5 0x6970667358 0x22 SLT KECCAK256 DUP12 KECCAK256 MSTORE8 RETURNDATASIZE DUP7 0x29 KECCAK256 EXTCODECOPY PUSH28 0x422D7C1132B470AB3EF7F2A075924213B89A5F13821B5864736F6C63 NUMBER STOP ADDMOD MULMOD STOP CALLER "
				},
				"gasEstimates": {
					"creation": {
						"codeDepositCost": "460600",
						"executionCost": "493",
						"totalCost": "461093"
					},
					"external": {
						"aw()": "infinite",
						"checkAdd(uint256)": "infinite",
						"see(uint256)": "infinite",
						"setStruct(uint8,string,uint256)": "infinite"
					}
				},
				"methodIdentifiers": {
					"aw()": "757efb7a",
					"checkAdd(uint256)": "9f3abb85",
					"see(uint256)": "ea7a7aba",
					"setStruct(uint8,string,uint256)": "284053a1"
				}
			},
			"storageLayout": {
				"storage": [
					{
						"astId": 65,
						"contract": "sol-practices/cast.sol:Cast",
						"label": "aw",
						"offset": 0,
						"slot": "0",
						"type": "t_struct(Workers)8_storage"
					},
					{
						"astId": 74,
						"contract": "sol-practices/cast.sol:Cast",
						"label": "tem",
						"offset": 0,
						"slot": "2",
						"type": "t_uint256"
					},
					{
						"astId": 79,
						"contract": "sol-practices/cast.sol:Cast",
						"label": "workers",
						"offset": 0,
						"slot": "3",
						"type": "t_mapping(t_uint256,t_struct(Workers)8_storage)"
					},
					{
						"astId": 87,
						"contract": "sol-practices/cast.sol:Cast",
						"label": "Wahala",
						"offset": 0,
						"slot": "4",
						"type": "t_mapping(t_uint256,t_mapping(t_uint256,t_mapping(t_string_memory_ptr,t_bytes32)))"
					}
				],
				"types": {
					"t_bytes32": {
						"encoding": "inplace",
						"label": "bytes32",
						"numberOfBytes": "32"
					},
					"t_mapping(t_string_memory_ptr,t_bytes32)": {
						"encoding": "mapping",
						"key": "t_string_memory_ptr",
						"label": "mapping(string => bytes32)",
						"numberOfBytes": "32",
						"value": "t_bytes32"
					},
					"t_mapping(t_uint256,t_mapping(t_string_memory_ptr,t_bytes32))": {
						"encoding": "mapping",
						"key": "t_uint256",
						"label": "mapping(uint256 => mapping(string => bytes32))",
						"numberOfBytes": "32",
						"value": "t_mapping(t_string_memory_ptr,t_bytes32)"
					},
					"t_mapping(t_uint256,t_mapping(t_uint256,t_mapping(t_string_memory_ptr,t_bytes32)))": {
						"encoding": "mapping",
						"key": "t_uint256",
						"label": "mapping(uint256 => mapping(uint256 => mapping(string => bytes32)))",
						"numberOfBytes": "32",
						"value": "t_mapping(t_uint256,t_mapping(t_string_memory_ptr,t_bytes32))"
					},
					"t_mapping(t_uint256,t_struct(Workers)8_storage)": {
						"encoding": "mapping",
						"key": "t_uint256",
						"label": "mapping(uint256 => struct Workers)",
						"numberOfBytes": "32",
						"value": "t_struct(Workers)8_storage"
					},
					"t_string_memory_ptr": {
						"encoding": "bytes",
						"label": "string",
						"numberOfBytes": "32"
					},
					"t_string_storage": {
						"encoding": "bytes",
						"label": "string",
						"numberOfBytes": "32"
					},
					"t_struct(Workers)8_storage": {
						"encoding": "inplace",
						"label": "struct Workers",
						"members": [
							{
								"astId": 5,
								"contract": "sol-practices/cast.sol:Cast",
								"label": "count",
								"offset": 0,
								"slot": "0",
								"type": "t_uint8"
							},
							{
								"astId": 7,
								"contract": "sol-practices/cast.sol:Cast",
								"label": "name",
								"offset": 0,
								"slot": "1",
								"type": "t_string_storage"
							}
						],
						"numberOfBytes": "64"
					},
					"t_uint256": {
						"encoding": "inplace",
						"label": "uint256",
						"numberOfBytes": "32"
					},
					"t_uint8": {
						"encoding": "inplace",
						"label": "uint8",
						"numberOfBytes": "1"
					}
				}
			},
			"userdoc": {
				"kind": "user",
				"methods": {},
				"version": 1
			}
		}
	}
}